:100000000C945E000C94A3030C947C030C94860067
:100010000C9486000C9486000C9486000C94860048
:100020000C9486000C9422040C9486000C94860098
:100030000C9486000C9486000C9486000C94860028
:100040000C9434090C9486000C94F0030C94CA03AD
:100050000C9486000C9486000C9486000C94860008
:100060000C94FE060C94860000000000240027007B
:100070002A0000000000250028002B0004040404CE
:100080000404040402020202020203030303030342
:10009000010204081020408001020408102001021F
:1000A00004081020000000080002010000030407FB
:1000B0000000000000000000F80FF40F11241FBE24
:1000C000CFEFD8E0DEBFCDBF12E0A0E0B1E0E0E4CA
:1000D000F6E202C005900D92A430B107D9F723E0F3
:1000E000A4E0B2E001C01D92A838B207E1F710E029
:1000F000CDE5D0E004C02197FE010E944710CC3529
:10010000D107C9F70E947E090C9413130C940000C8
:100110000E94441208950895CF92DF92EF92FF92C9
:100120000F931F93CF93DF936C017A018B01C0E093
:10013000D0E0CE15DF0589F0D8016D918D01D60193
:10014000ED91FC910190F081E02DC6010995892B7C
:1001500011F47E0102C02196ECCFC701DF91CF914F
:100160001F910F91FF90EF90DF90CF900895FC01C9
:10017000538D448D252F30E0842F90E0821B930B0C
:10018000541710F0CF96089501970895FC01918DB2
:10019000828D981761F0828DDF01A80FB11D5D96E9
:1001A0008C91928D9F5F9F73928F90E008958FEF57
:1001B0009FEF0895FC01918D828D981731F0828D0B
:1001C000E80FF11D858D90E008958FEF9FEF089562
:1001D000FC01918D228D892F90E0805C9F4F821BC6
:1001E00091098F739927089584E892E00E94E800AE
:1001F00021E0892B09F420E0822F0895FC01848DF1
:10020000DF01A80FB11DA35ABF4F2C91848D90E040
:1002100001968F739927848FA689B7892C93A0891B
:10022000B1898C9180648C93938D848D981306C0D2
:100230000288F389E02D80818F7D80830895EF927D
:10024000FF920F931F93CF93DF93EC0181E0888F90
:100250009B8D8C8D981305C0E889F989808185FD77
:1002600024C0F62E0B8D10E00F5F1F4F0F73112768
:10027000E02E8C8DE8120CC00FB607FCFACFE8898F
:10028000F989808185FFF5CFCE010E94FE00F1CF74
:100290008B8DFE01E80FF11DE35AFF4FF0820B8FAB
:1002A000EA89FB898081806207C0EE89FF896083CB
:1002B000E889F98980818064808381E090E0DF9122
:1002C000CF911F910F91FF90EF900895CF93DF93FF
:1002D000EC01888D8823C9F0EA89FB89808185FD3E
:1002E00005C0A889B9898C9186FD0FC00FB607FC9F
:1002F000F5CF808185FFF2CFA889B9898C9185FFE0
:10030000EDCFCE010E94FE00E7CFDF91CF9108959F
:1003100080E090E0892B29F00E94F40081110C9478
:1003200000000895089580E090E008950F931F93D2
:10033000CF93DF93EC0188819981009729F02A817E
:100340003B812617370788F48B016F5F7F4F0E9430
:100350007A11009761F0998388831B830A832C812B
:100360003D81232B11F4FC01108281E001C080E06B
:10037000DF91CF911F910F9108958091120290917A
:10038000130201969093130280931202809112023D
:10039000909113028097B4F180910E0290910F0218
:1003A000A0911002B091110240910A0250910B02EB
:1003B00060910C0270910D028827B7FD83959927F3
:1003C000AA27BB27842B952BA62BB72B80930A0239
:1003D00090930B02A0930C02B0930D0280910A023D
:1003E00090910B02A0910C02B0910D02880F991F01
:1003F000AA1FBB1F80930A0290930B02A0930C02CA
:10040000B0930D0280910E0290910F02A091100204
:10041000B0911102816080930E0290930F02A0931D
:100420001002B093110280910E0290910F02A091E0
:100430001002B0911102880F991FAA1FBB1F809351
:100440000E0290930F02A0931002B09311020E942B
:10045000EE08609314027093150280931602909335
:1004600017020895809112029091130201969093C1
:1004700013028093120280911202909113028097CE
:10048000B4F180910E0290910F02A0911002B091F0
:10049000110240910A0250910B0260910C0270917E
:1004A0000D028827B7FD83959927AA27BB27842BA0
:1004B000952BA62BB72B80930A0290930B02A09347
:1004C0000C02B0930D0280910A0290910B02A09150
:1004D0000C02B0910D02880F991FAA1FBB1F8093B9
:1004E0000A0290930B02A0930C02B0930D0280912C
:1004F0000E0290910F02A0911002B0911102880F8C
:10050000991FAA1FBB1F80930E0290930F02A09306
:100510001002B09311020E94EE08609314027093CF
:1005200015028093160290931702089560E08CE004
:100530000E942C08E0E7F0E080818E7F808381E0DC
:100540008093000110921F020895FC0124813581DF
:100550006217730720F480819181009729F410922B
:100560002B028BE292E00895860F971F0895EF9279
:10057000FF920F931F93CF93DF93FC01248135816A
:100580006115710511F480E019C041155105A9F0FC
:100590007B01EC018A01020F131FB8010E94960132
:1005A000882389F3288139818C819D81B701820F4D
:1005B000931F0E945B121D830C8381E0DF91CF911A
:1005C0001F910F91FF90EF900895CF93DF9300D08C
:1005D000CDB7DEB769831A8241E050E0BE016F5F9C
:1005E0007F4F0E94B7020F900F90DF91CF91089537
:1005F000CF93DF93EC0188819981009711F00E94DD
:10060000E210198218821D821C821B821A82DF91DD
:10061000CF910895EF92FF920F931F93CF93DF93A3
:10062000EC017B018A01BA010E949601811104C08C
:10063000CE010E94F80207C01D830C83B701888198
:1006400099810E945B12CE01DF91CF911F910F9192
:10065000FF90EF900895CF93DF93EC016115710542
:1006600059F0FB0101900020E9F73197AF01461BDB
:10067000570B0E940A0302C00E94F802CE01DF91CC
:10068000CF910895CF93DF93EC01FB018617970775
:1006900061F0608171816115710529F04481558196
:1006A0000E940A0302C00E94F802CE01DF91CF919E
:1006B0000895FC01808191810C94E210FC0111826B
:1006C000108213821282158214820C944203FC0160
:1006D00011821082138212821582148261157105B3
:1006E00051F0FB0101900020E9F73197AF01461B63
:1006F000570B0C940A0308951F920F920FB60F9296
:1007000011242F933F934F935F936F937F938F9316
:100710009F93AF93BF93EF93FF93E0910301F09109
:1007200004010995FF91EF91BF91AF919F918F9136
:100730007F916F915F914F913F912F910F900FBEDD
:100740000F901F9018951F920F920FB60F921124C1
:100750002F933F934F935F936F937F938F939F93C9
:10076000AF93BF93EF93FF93E0910101F0910201EA
:100770000995FF91EF91BF91AF919F918F917F91DB
:100780006F915F914F913F912F910F900FBE0F90FE
:100790001F9018951F920F920FB60F9211242F934E
:1007A0003F934F935F936F937F938F939F93AF93F9
:1007B000BF93EF93FF9384E892E00E94FE00FF91C5
:1007C000EF91BF91AF919F918F917F916F915F91C9
:1007D0004F913F912F910F900FBE0F901F90189542
:1007E0001F920F920FB60F9211242F938F939F9306
:1007F000EF93FF93E0919402F09195028081E09154
:100800009A02F0919B0282FD12C0908180919D021C
:100810008F5F8F7320919E02821751F0E0919D02AD
:10082000F0E0EC57FD4F958F80939D0201C08081D1
:10083000FF91EF919F918F912F910F900FBE0F908D
:100840001F9018951F920F920FB60F9211242F939D
:100850003F934F935F936F937F938F939F93AF9348
:10086000BF93EF93FF9380911802909119028093A8
:10087000B20080911B0290911C02A0911D02B091C8
:100880001E020196A11DB11D80931B0290931C02B4
:10089000A0931D02B0931E0280911B0290911C0236
:1008A000A0911D02B0911E024091060250910702D4
:1008B000609108027091090284179507A607B7078F
:1008C00010F180911A0281111EC081E080931A02FA
:1008D00080911B0290911C02A0911D02B0911E02FA
:1008E000841B950BA60BB70B80931B0290931C02E5
:1008F000A0931D02B0931E02E0910402F091050244
:10090000099510921A02FF91EF91BF91AF919F91BB
:100910008F917F916F915F914F913F912F910F90A8
:100920000FBE0F901F901895CF93FC01C48121E05A
:1009300020934E02C0932A0210924C0210924D0254
:100940008385682B88E792E00E94830680914D02A0
:10095000813208F046C0909152029111FCCF92E092
:100960009093520291E0909354029FEF9093510222
:100970001092760280937502ACE2B2E025E532E097
:10098000F9019E2F921B981718F49D919193F9CF1E
:100990001092770280917702CC0FC82BC093770218
:1009A00080915302813061F410925302809177025A
:1009B0008093BB008091BC0083FDF8CF85EC01C023
:1009C00085EE8093BC00809152028230E1F38091E9
:1009D00051028F3F31F080915102803211F08091AD
:1009E000510210924C0210924D0210924E02CF9181
:1009F00008950F931F93CF938C01C62F0E949404E8
:100A00006C2F6460C8010E9494046C2F6B7FC80136
:100A10000E94940483EC90E00197F1F7CF911F912D
:100A20000F910895FF920F931F93CF93DF931F921F
:100A3000CDB7DEB78C01F62E962F907F692F642BF1
:100A4000C80149830E94F90480E1F89EB001112495
:100A50004981642BC8010F90DF91CF911F910F91B5
:100A6000FF900C94F90441E00E94120581E090E0AF
:100A700008956F927F929F92AF92BF92CF92DF9232
:100A8000EF92FF920F931F93CF93DF93CDB7DEB713
:100A90002E970FB6F894DEBF0FBECDBF8C01B62ED9
:100AA0000E94D70640E062E087E293E00E941205D0
:100AB000EBE3FFE13197F1F784E18B1510F454E19A
:100AC000B52E7801A12C38E0932E44E1C42ED12C10
:100AD000AB1409F47CC0EBE0F1E0DE011196892D46
:100AE00001900D928A95E1F7809130038A1510F4F8
:100AF000815001C08A2DFE013196E80FF11DE80FEB
:100B0000F11D6081606840E087E293E00E94120579
:100B1000B701CE0109960E945E036D847E8484E154
:100B200068167104E0F4C6018619970996958795B1
:100B3000182F00E0011750F441E050E068E571E043
:100B400087E293E00E948C000F5FF4CF4D855E85B5
:100B500069857A8587E293E00E948C002FC063E567
:100B600071E0CE0101960E9467030D851E85043158
:100B70001105C0F06016710608F48301E985FA8555
:100B8000E00FF11F7080108269857A856D5E7F4F5E
:100B9000CE0101960E942B0389859A85FC01E00F06
:100BA000F11F70824D815E8169817A8187E293E0D5
:100BB0000E948C00CE0101960E945903A394CE019D
:100BC00009960E94590386E0E80EF11C81CF2E960B
:100BD0000FB6F894DEBF0FBECDBFDF91CF911F914E
:100BE0000F91FF90EF90DF90CF90BF90AF909F90CC
:100BF0007F906F90089585ED8093BC008091BC003C
:100C000084FDFCCF10925202089540915F03262F7D
:100C100030E0240F311D21323105DCF420915202E5
:100C20002430C9F4FC0180E090E0861758F430913C
:100C30005F032191DC01A35CBC4FA30FB11D2C937A
:100C40000196F3CF80915F03680F60935F0380E0AC
:100C5000089581E0089582E00895089581E090E08C
:100C60003091500220914F02321710F480E090E052
:100C700091958195910908958091500290914F022C
:100C8000891730F48F5F8093500280E090E00895E0
:100C90008FEF9FEF089580914F0290E020915002D6
:100CA000821B91090895CF92DF92EF92FF920F93EA
:100CB0001F93CF93DF937C01262F972F8A0180917A
:100CC0004E02882391F0C62FD72F6E01C40ED51E79
:100CD000CC15DD0571F06991D701ED91FC91019082
:100CE000F081E02DC7010995F3CF642F822F0E9478
:100CF0000506C801DF91CF911F910F91FF90EF90F2
:100D0000DF90CF900895CF93DF931F92CDB7DEB7DA
:100D1000698320914E022223D1F020914D0220328E
:100D200040F021E030E0FC013383228380E090E05A
:100D300015C080914C02E82FF0E0E45DFD4F9981F1
:100D400090838F5F80934C0280934D0205C061E0D9
:100D5000CE0101960E94050681E090E00F90DF91A0
:100D6000CF9108953FB7F8948091390390913A0359
:100D7000A0913B03B0913C0326B5A89B05C02F3F33
:100D800019F00196A11DB11D3FBFBA2FA92F982FB1
:100D90008827820F911DA11DB11DBC01CD0142E02C
:100DA000660F771F881F991F4A95D1F7089540E075
:100DB00061E087E293E00E9412058BE39FE10197D7
:100DC000F1F708958230C8F4E82FF0E0EE0FFF1F2E
:100DD000EF5FFE4F71836083813041F08091690045
:100DE0008C7F826080936900E89A08958091690001
:100DF000837F886080936900E99A08951F920F921B
:100E00000FB60F9211242F933F934F935F936F93DD
:100E10007F938F939F93AF93BF93EF93FF938091B3
:100E2000B900887F803609F49CC068F5883209F4DF
:100E30005BC090F4803109F454C038F4882309F47D
:100E4000F6C0883009F44DC0F6C0883109F44CC0B2
:100E5000803209F45DC0EFC0803409F468C048F402
:100E6000803309F455C0883309F0E5C080935102FE
:100E7000D8C0803509F44FC0883509F45DC0883486
:100E800009F0D9C0D6C0883909F4C7C0A8F488379A
:100E900009F467C038F4883609F463C0803709F470
:100EA00060C0C9C0883809F4B8C0803909F45FC08F
:100EB000803809F0C0C05BC0803B09F486C038F4BC
:100EC000803A09F466C0883A09F47FC0B4C0803C17
:100ED00009F4A7C0883C09F4A4C0883B09F48AC07F
:100EE000AAC08091770210C090917602809175021D
:100EF000981770F5E091760281E08E0F809376026C
:100F0000F0E0EB5AFD4F80818093BB0085EC86C0FA
:100F1000809351028EC0E091760281E08E0F809323
:100F200076028091BB00F0E0EB5AFD4F80839091F8
:100F30007602809175026EC0E091760281E08E0F9C
:100F4000809376028091BB00F0E0EB5AFD4F8083E6
:100F50008091540281116DC081E08093530284EA34
:100F600061C083E08093520210928303CFCF8091BF
:100F70008303803208F051C0E091830381E08E0F3B
:100F8000809383038091BB00F0E0ED59FC4F808398
:100F9000BDCF85EC8093BC001092520280918303F8
:100FA000803230F4E0918303F0E0ED59FC4F108281
:100FB0006091830370E0E0916103F091620383E646
:100FC00093E009951092830336C084E08093520227
:100FD0001092600310925F03E0915D03F0915E0355
:100FE000099580915F03811105C081E080935F03C3
:100FF00010923D03E091600381E08E0F80936003C7
:10100000F0E0E35CFC4F80818093BB009091600333
:1010100080915F03981708F479CF85E88093BC002E
:101020000AC085EC8093BC001092520204C010925A
:1010300051020E94FB05FF91EF91BF91AF919F91EB
:101040008F917F916F915F914F913F912F910F9071
:101050000FBE0F901F90189590E0FC01EC55FF4FCC
:101060003491FC01E057FF4F2491FC01E458FF4FFD
:10107000E491EE2309F43BC0332339F1333091F08E
:1010800038F43130A9F0323001F584B58F7D12C0CB
:10109000373091F03830A1F03430B9F480918000CD
:1010A0008F7D03C0809180008F77809380000DC07A
:1010B00084B58F7784BD09C08091B0008F7703C05D
:1010C0008091B0008F7D8093B000F0E0EE0FFF1FA5
:1010D000EE58FF4FA591B4918FB7F894EC91611140
:1010E00003C020952E2301C02E2B2C938FBF089573
:1010F000CF93DF9390E0FC01E057FF4F2491FC0178
:10110000E458FF4F8491882361F190E0880F991F84
:10111000FC01E859FF4FC591D491FC01EE58FF4FF7
:10112000A591B491611109C09FB7F8948881209569
:1011300082238883EC912E230BC0623061F49FB729
:10114000F8943881822F809583238883EC912E2B0D
:101150002C939FBF06C08FB7F894E8812E2B28836D
:101160008FBFDF91CF9108958F929F92AF92BF92E0
:10117000CF92DF92EF92FF926B017C010E94B20648
:101180004B015C01C114D104E104F104F1F00E94AF
:10119000B206DC01CB0188199909AA09BB09883E6E
:1011A0009340A105B10570F321E0C21AD108E1080E
:1011B000F10888EE880E83E0981EA11CB11CC114B2
:1011C000D104E104F10419F7DDCFFF90EF90DF9037
:1011D000CF90BF90AF909F908F9008952FB7F894C5
:1011E00060913503709136038091370390913803F5
:1011F0002FBF08950F931F930E94EE0860938C02F7
:1012000070938D0280938E0290938F02E0918402FE
:10121000F09185020284F385E02D84E892E009953F
:1012200097FF1FC00E94EE0800918C0210918D0262
:1012300020918E0230918F02DC01CB01801B910B3B
:10124000A20BB30B009188021091890220918A02AF
:1012500030918B0280179107A207B307B8F28FEF86
:101260009FEF1F910F9108951F920F920FB60F924B
:1012700011242F933F938F939F93AF93BF938091AC
:10128000350390913603A0913703B0913803309124
:10129000340323E0230F2D3720F40196A11DB11D47
:1012A00005C026E8230F0296A11DB11D209334032B
:1012B0008093350390933603A0933703B09338039C
:1012C0008091390390913A03A0913B03B0913C0384
:1012D0000196A11DB11D8093390390933A03A09309
:1012E0003B03B0933C03BF91AF919F918F913F918E
:1012F0002F910F900FBE0F901F901895CF93DF93F3
:10130000CDB7DEB7E7970FB6F894DEBF0FBECDBFFF
:10131000789484B5826084BD84B5816084BD85B5D0
:10132000826085BD85B5816085BD80916E008160DC
:1013300080936E0010928100809181008260809382
:101340008100809181008160809381008091800084
:101350008160809380008091B10084608093B100AF
:101360008091B00081608093B00080917A008460A9
:1013700080937A0080917A00826080937A008091D5
:101380007A00816080937A0080917A0080688093EF
:101390007A001092C100E0919402F091950282E0EF
:1013A0008083E0919002F09191021082E09192028C
:1013B000F09193028FEC808310929C02E09198024E
:1013C000F091990286E08083E0919602F091970275
:1013D000808180618083E0919602F0919702808104
:1013E00088608083E0919602F09197028081806806
:1013F0008083E0919602F091970280818F7D8083B7
:101400001092500210924F0210924C0210924D0214
:101410001092520281E0809354021092530261E0D4
:1014200082E10E942C0861E083E10E942C088091F7
:10143000B9008E7F8093B9008091B9008D7F809331
:10144000B90088E48093B80085E48093BC001092D2
:101450002C0380913003823018F098E090932C0395
:1014600090913103992339F0813029F480912C0334
:10147000846080932C0362E370E080E090E00E943F
:10148000B4086091320387E293E00E94940468EE0E
:1014900073E080E090E00E94B40860E387E293E0AC
:1014A0000E94F9040BE416E4C8010197F1F760E328
:1014B00087E293E00E94F904C8010197F1F760E325
:1014C00087E293E00E94F90483E592E00197F1F747
:1014D00060E287E293E00E94F90460912C0360626D
:1014E00040E087E293E00E94120584E080932D03A0
:1014F00040E06CE087E293E00E9412050E94D7066C
:1015000082E080932E0340E066E087E293E00E9451
:10151000120540E062E087E293E00E9412058BE34F
:101520009FE10197F1F788E08093320360E087E262
:1015300093E00E94940461E08CE00E94780860E0EF
:101540008CE00E942C081092140210921502109246
:1015500016021092170210920A0210920B021092B9
:101560000C0210920D0210920E0210920F021092B5
:101570001002109211021092220210922302109275
:101580002402109225021092210210922002109241
:1015900013021092120260E082E00E94780860E07C
:1015A00083E00E94780862E372E080E00E94E20635
:1015B0006DEB71E081E00E94E20688E893E1A0E033
:1015C000B0E08093060290930702A0930802B093C4
:1015D000090286E992E090930502809304028091CB
:1015E00070008E7F809370008091B0008C7F80931C
:1015F000B0008091B100877F8093B1008091B600E8
:101600008F7D8093B600809170008D7F80937000F5
:101610008091B10084608093B1008091B1008C7F93
:101620008093B10086E090E09093190280931802B5
:101630000E94D70660ED77E080E090E00E94B40859
:101640009E01275E3F4F3DAB2CAB8091000188236C
:1016500029F080911F02882309F4F3C2F8940E94B4
:10166000EE086B017C018091140290911502A0910B
:101670001602B0911702A7019601281B390B4A0BDD
:101680005B0B2A3131054105510508F4BAC0809140
:101690001202909113024897F9F0809112029091F2
:1016A00013024A97C9F08091120290911302809719
:1016B00099F08091120290911302829769F08091C3
:1016C000120290911302089739F0809112029091C2
:1016D0001302049709F079C080910E0290910F02D5
:1016E000A0911002B0911102B695A7959795879594
:1016F00080930E0290930F02A0931002B0931102F8
:1017000080911202909113028197A4F080910A02B5
:1017100090910B02A0910C02B0910D02B695A79585
:101720009795879580930A0290930B02A0930C02E1
:10173000B0930D028091120290911302089709F064
:10174000B4C240910E0250910F026091100270914C
:10175000110280910E0290910F02A0911002B0919F
:1017600011028F70209112023091130230932102E6
:1017700020932002109213021092120210920E0275
:1017800010920F02109210021092110210920A028F
:1017900010920B0210920C0210920D02282F082EAC
:1017A000000C330B407F552766277727E4E07695BA
:1017B000679557954795EA95D1F7409550954F70A5
:1017C00055272417350709F463C2C0921402D0923A
:1017D0001502E0921602F092170210921302109274
:1017E000120210920E0210920F021092100210922A
:1017F000110210920A0210920B0210920C02109227
:101800000D0280E07894882309F458C06091220288
:101810007091230280912402909125026093260208
:10182000709327028093280290932902683E33E048
:10183000730781059105E8F11BA21AA21DA21CA243
:101840001FA21EA22AE0AE014F5F5F4F0E949E12B0
:10185000BE016F5F7F4FCE0182960E942B03BE01B7
:101860006E5D7F4FCE0101960E945E0341E050E025
:101870006FE471E0CE0101960E94B702882309F45B
:10188000EEC24D815E8169817A8184E892E00E9496
:101890008C0042E050E061E571E084E892E00E9453
:1018A0008C00CE0101960E945903CE0182960E94BF
:1018B000590384E892E00E9466019EC084E892E0A9
:1018C0000E94E800892B09F497C063E571E0CE011E
:1018D00001960E9467030E94FA0897FD06C0682FD0
:1018E000CE0101960E94E502F6CF809121039091EE
:1018F00022030097C9F069817A816115710591F021
:1019000040912303509124032D813E8142175307B8
:1019100048F00E945B128D819E81909326038093F4
:10192000250318C00E94E21089819A8190932203B6
:10193000809321038B819C819093240380932303C4
:101940008D819E8190932603809325031A821982AC
:101950001C821B821E821D82CE0101960E945903A9
:10196000C0902103D0902203C114D10409F444C0D3
:10197000009125031091260301151105E9F1560187
:1019800075014FEFA41AB40AF7018081082E000CEC
:10199000990B0E94C012892B99F7015011090C0D67
:1019A0001D1DF8018081082E000C990B0E94C012A9
:1019B000892B89F4A8014F5F5F4F4E195F0950933F
:1019C000260340932503CE14DF0458F4B701C60163
:1019D0000E94491206C00E151F0560F3015011093F
:1019E000E0CFE0912103F0912203809125039091B3
:1019F0002603E80FF91F108280912503909126039A
:101A0000892B09F41BC161E273E0CE0182960E942A
:101A10005E0380E290E00E944D108C01FC0120E208
:101A200011922A95E9F7AC014F5F5F4F5FAB4EAB68
:101A300063E571E0CA010E946703180157E0250EB3
:101A4000311C63E571E0C1010E94670348018DE02C
:101A5000880E911C63E571E0C4010E9467033801A0
:101A600093E1690E711C63E571E0C3010E94670395
:101A70006801E9E1CE0ED11C63E571E0C6010E9468
:101A80006703F801178E60E070E0CE0182960E9435
:101A9000A502FC018081F8018083AA24A394B12CC3
:101AA000E12CF12C250121E0421A51088EA19FA1C1
:101AB0004816590650F4B201CE0182960E94A50242
:101AC000FC0180818A3009F001C2CE0182960E9419
:101AD00059039E012F5F3F4F790163E571E0C70114
:101AE0000E946703F6E0EF0EF11C2CA93DA9E21657
:101AF000F30699F7B401CE0182960E945E0364E575
:101B000071E0CE018E960E946703BE01625D7F4F39
:101B1000CE0188960E945E034EA15FA16AA17BA1BF
:101B2000CE0188960E94B702811104C0CE0188962A
:101B30000E94F802BE01685D7F4FCE0101960E94AF
:101B40004203CE0188960E945903CE018E960E94D0
:101B50005903CE0182960E945903F8018081823692
:101B600009F49EC10CF480C1833609F089C16AE58D
:101B700071E0CE0107960E942B036CE671E0CE0166
:101B80000D960E942B03F8018789908D892B09F40B
:101B90009AC1F801E388F48860EB71E0C7010E9404
:101BA0005212892B09F085C162EB71E0CE010D96CE
:101BB0000E942B03F801858D968D892B29F0B601A3
:101BC000CE0143960E94420364E0CE0101960E943A
:101BD00039051092000110921B0210921C02109203
:101BE0001D0210921E0210921A028091180290910A
:101BF00019028093B2008091700081608093700020
:101C000063E571E081E293E00E942B0310922602CB
:101C1000109227021092280210922902CE014396B8
:101C20000E945903CE010D960E945903CE010796DA
:101C30000E945903CE0101960E9459030E94880117
:101C400004CD69ED71E0CE0101960E94670363E562
:101C500071E0CE0107960E94670366EE71E0CE0147
:101C60000D960E94670363E0CE0101960E9439053C
:101C7000F1E0F0931F02CE010D960E945903CE01B0
:101C800007960E945903CE0101960E945903E6CCA3
:101C90008A3021F08B3019F48DE001C08BE1082EE1
:101CA000000C990BAA0BBB0BD0C080911202909133
:101CB00013020497D1F580910E0290910F02A0912A
:101CC0001002B09111028F708A3021F08B3019F41C
:101CD0008DE001C08BE1082E000C990BAA0BBB0B09
:101CE0008093220290932302A0932402B0932502B2
:101CF000809112029091130290932102809320020E
:101D0000109213021092120210920E0210920F0201
:101D1000109210021092110210920A0210920B02FD
:101D200010920C0210920D0298C0809112029091B4
:101D300013028A3179F480910E0290910F02A091E2
:101D40001002B09111028E7FB170B695A79597954C
:101D500087955FC0823209F054C080910A02909149
:101D60000B02A0910C02B0910D0283709927AA2753
:101D7000BB2780930A0290930B02A0930C02B093AE
:101D80000D0280910A0290910B02A0910C02B09179
:101D90000D024EE1880F991FAA1FBB1F4A95D1F76C
:101DA00080930A0290930B02A0930C02B0930D0251
:101DB00080910E0290910F02A0911002B091110239
:101DC000B695A7959795879580930E0290930F02ED
:101DD000A0931002B093110280910A0290910B021D
:101DE000A0910C02B0910D0240910E0250910F0291
:101DF0006091100270911102842B952BA62BB72BAA
:101E000008C080910E0290910F02A0911002B09133
:101E1000110220911202309113023093210220937B
:101E20002002109213021092120210920E021092CF
:101E30000F02109210021092110210920A021092D8
:101E40000B0210920C0210920D02809322029093CA
:101E50002302A0932402B093250281E0D3CCCE01CB
:101E600001960E94F8020DCD813609F0ADC063E9FC
:101E700071E0CE0107960E942B0369EA71E07FCEE4
:101E8000833709F0A1C061E08CE00E942C0863E96F
:101E900071E0CE0107960E942B0361EA71E06FCEDC
:101EA0006BE771E0CE0107960E942B0369E871E0B1
:101EB00066CE63EC71E0C7010E945212892B19F4BF
:101EC00065EC71E073CE63E571E070CEB201CE01D6
:101ED00082960E94A502FC0180818C3721F4FFEFDD
:101EE000EF1AFF0A6DC023E0E216F10489F194F4C1
:101EF00041E0E416F10411F152E0E516F10409F0B5
:101F00005FC0B201CE0182960E94A502FC016081F1
:101F1000C10154C085E0E816F10409F447C0ECF1B2
:101F2000E6E0EE16F10409F04BC0B201CE01829654
:101F30000E94A502FC016081C60140C0B201CE0131
:101F400082960E94A502FC0160818EA99FA936C0DD
:101F5000B201CE0182960E94A502FC0180811A8204
:101F600019821C821B821E821D8288A719A6BE01AF
:101F7000685D7F4FCE0101960E942B0389819A8173
:101F8000009719F00E94621201C060E0F801678FAB
:101F9000CE0101960E94590313C0B201CE01829670
:101FA0000E94A502FC016081C40108C0B201CE01FB
:101FB00082960E94A502FC016081C3010E94E50295
:101FC000FFEFAF1ABF0A6ECD62EF71E0CE018296CD
:101FD0000E94670361E0CE0182960E943905CE011E
:101FE00082960E945903F0CD81E293E00C9459034C
:101FF000E8E7F2E01382128288EE93E0A0E0B0E01E
:1020000084839583A683B78327E131E031832083DE
:10201000E4E8F2E01382128284839583A683B78377
:1020200089E291E09183808385EC90E095878487B5
:1020300084EC90E09787868780EC90E0918B808B92
:1020400081EC90E0938B828B82EC90E0958B848B7B
:1020500086EC90E0978B868B118E128E138E148EE9
:10206000E7E2F3E0138212828BE391E091838083B5
:1020700087E2848384E1808784E08187128688E018
:10208000838763E571E081E293E00C946703EE0FD0
:10209000FF1F0590F491E02D0994CF93DF938230D8
:1020A000910510F482E090E0E0918603F0918703BF
:1020B00020E030E0C0E0D0E0309711F14081518164
:1020C00048175907C0F04817590761F48281938176
:1020D000209719F09B838A832BC09093870380936A
:1020E000860326C02115310519F04217530718F44D
:1020F0009A01BE01DF01EF010280F381E02DDCCF08
:102100002115310509F1281B390B2430310590F4D4
:1021100012968D919C9113976115710521F0FB0129
:102120009383828304C09093870380938603FD0189
:10213000329644C0FD01E20FF31F81939193225028
:1021400031092D933C933AC020918403309185034B
:10215000232B41F42091070130910801309385032E
:10216000209384032091050130910601211531054A
:1021700041F42DB73EB74091090150910A01241B4B
:10218000350BE0918403F0918503E217F307A0F487
:102190002E1B3F0B2817390778F0AC014E5F5F4FBD
:1021A0002417350748F04E0F5F1F50938503409367
:1021B00084038193919302C0E0E0F0E0CF01DF91CE
:1021C000CF9108950F931F93CF93DF93009709F456
:1021D0008CC0FC0132971382128200918603109109
:1021E00087030115110581F420813181820F931F2E
:1021F00020918403309185032817390779F5F093EE
:102200008503E093840371C0D80140E050E0AE172D
:10221000BF0750F412962D913C911397AD012115F3
:10222000310509F1D901F3CF9D01DA01338322830E
:1022300060817181860F971F8217930769F4EC0103
:1022400028813981260F371F2E5F3F4F318320832E
:102250008A819B8193838283452B29F4F0938703A2
:10226000E093860342C01396FC93EE931297ED0120
:10227000499159919E01240F351FE217F30771F41C
:1022800080819181840F951F029611969C938E9365
:102290008281938113969C938E931297E0E0F0E0F5
:1022A000D80112968D919C911397009719F0F8011F
:1022B0008C01F6CF8D919C9198012E5F3F4F820F3C
:1022C000931F20918403309185032817390769F4FF
:1022D000309729F4109287031092860302C013826C
:1022E00012821093850300938403DF91CF911F9195
:1022F0000F910895A0E0B0E0E0E8F1E10C94E01265
:10230000EC01009721F4CB010E944D10B8C0FC01F4
:10231000E60FF71F9C0122503109E217F30708F47A
:10232000ACC0D9010D911C91119706171707B0F099
:102330000530110508F49FC0C80104978617970758
:1023400008F499C002501109061B170B0193119351
:102350006D937C93CF010E94E2108DC05B01A01AA7
:10236000B10A4C01800E911EA0918603B0918703A3
:1023700040E050E0E12CF12C109709F44AC0A81578
:10238000B905D1F56D907C901197630182E0C80E7C
:10239000D11CCA14DB0480F1A3014A195B096A014C
:1023A00082E0C80ED11C1296BC9012971396AC9185
:1023B000B5E0CB16D10440F0B282A38351834083B1
:1023C000D9016D937C930AC00E5F1F4FC301800F2C
:1023D000911FF90191838083EB2DFA2FE114F10411
:1023E00031F0D7011396FC93EE93129744C0F0930B
:1023F0008703E09386033FC08D919C911197481706
:10240000590708F4AC017D0112960D90BC91A02DE6
:10241000B3CF809184039091850388159905E1F4E9
:1024200046175707C8F4809105019091060100975F
:1024300041F48DB79EB74091090150910A01841B68
:10244000950BE817F907C8F4F0938503E09384032C
:10245000F901718360830FC0CB010E944D107C0194
:10246000009759F0A801BE010E944912CE010E94B6
:10247000E210C70104C0CE0102C080E090E0CDB7F9
:10248000DEB7EEE00C94FC1281E090E0F8940C943E
:102490001313FB01DC0102C001900D92415050402A
:1024A000D8F70895FB01DC018D910190801901108E
:1024B000D9F3990B0895FB01DC0101900D920020E6
:1024C000E1F708951F93FC0199278827BC01E89440
:1024D00011911032E9F3193010F01E30C8F31B329D
:1024E00051F01D3249F4689406C00E948912610FB0
:1024F000711D811D911D119110531A30B0F33EF4DE
:1025000090958095709561957F4F8F4F9F4F1F914C
:102510000895592F482F372F262F660F771F881FB2
:10252000991F660F771F881F991F620F731F841FE3
:10253000951F660F771F881F991F0895BB27FA0103
:10254000A62F6217710581059105330B30FB66F0EC
:10255000AA27660F771F881F991FAA1FA21710F0BE
:10256000A21B63953850A9F7A05DAA3308F0A95DB6
:10257000A19336F7B111B1931082CA010C94C9121C
:1025800091110C94D912803219F089508550C8F7F6
:102590000895DC01FC01672F71917723E1F73297F1
:1025A00004C07C916D9370836291AE17BF07C8F32E
:1025B00008959927882708952F923F924F925F920E
:1025C0006F927F928F929F92AF92BF92CF92DF9243
:1025D000EF92FF920F931F93CF93DF93CDB7DEB7A8
:1025E000CA1BDB0B0FB6F894DEBF0FBECDBF09943C
:1025F0002A88398848885F846E847D848C849B8493
:10260000AA84B984C884DF80EE80FD800C811B81A0
:10261000AA81B981CE0FD11D0FB6F894DEBF0FBECF
:10262000CDBFED01089510E0CDE5D0E004C0FE017E
:102630000E9447102196CE35D107C9F7F894FFCFF5
:10264000018B008B00000088038000000040001414
:10265000005400000000008306530693012D064B32
:10266000063C062E06000000001F018C00B7006625
:1026700001E800C600DA000000000033058C00937A
:102680000192010000000088008C00930192012358
:10269000000D0A00436F643A20004572726F726544
:1026A0002064692076696E636F6C6F004143434517
:1026B00053534F204E454741544F00436F64696365
:1026C000652065727261746F00524950524F5641D5
:1026D000524500436F646963652076616C69646F7D
:1026E00000454E5452415441005553434954410012
:1026F0003100414C4C41524D4520415454495641C2
:10270000544F003200414C4C41524D4520444953F6
:10271000415454495641544F0054616C656E744C99
:10272000616220434100496E2066756E7A696F6E62
:102730006500417A696F6E65206E6F6E2076616C00
:042740006964610067
:00000001FF
